:100000000A128A11D52F0A128A15CD240A128A11D2
:100010000A128A159E240A128A11003083120313D1
:10002000A3000130A2008630A100A030A0000A1277
:100030008A111D200A128A110800831203139415D5
:100040002008A4002108A5002208A6002308A70074
:1000500002300310A40DA50DA60DA70DFF3E031D34
:1000600029282708F3002608F2002508F1002408B3
:10007000F0000130F7003130F6002D30F50000308F
:10008000F4000A128A1533270A128A117008FF3EFB
:100090008316031393008312031394160800FD00C4
:1000A000803083120313A0002008F40001300A12EC
:1000B0008A1572250A128A110A128A15D1260A1285
:1000C0008A11CB3083120313A0002008F9007D08A9
:1000D0008400831300080A128A15E5240A128A1183
:1000E000CC3083120313A0002008F9007D0A84009D
:1000F000831300080A128A15E5240A128A11CD30EA
:1001000083120313A0002008F9007D08023E84003A
:10011000831300080A128A15E5240A128A11CE30C8
:1001200083120313A0002008F9000A30F000003009
:10013000F1007C08A100A2012108F2002208F300CE
:100140000A128A1599270A128A117008303E0A127B
:100150008A15E5240A128A11CF3083120313A000F6
:100160002008F9000A30F0000030F1007C08A100FE
:10017000A2012108F2002208F3000A128A151A26A9
:100180000A128A117008303E0A128A15E5240A12F2
:100190008A1108000310831203135C0D5D0DDE004D
:1001A0005E08FD007D08031DD628D728E028003012
:1001B000DD000030DC000030DB000030DA004529D3
:1001C0005A08DE005B08DF005C08E0005D08E10023
:1001D0001F300310E10CE00CDF0CDE0CFF3E031DB2
:1001E000E9285E08E2006208FC00DC17FF30DA054F
:1001F000FF30DB05FF30DC050030DD059630FD0209
:10020000FD1F032904291E297D08803A973E031803
:100210000A290B290C29D72801300310DD0CDC0C2E
:10022000DB0CDA0CFF3E031D0D290130DE005E08F9
:10023000FD07031D1C291D290C29352920307D02AD
:10024000031C232924293029D7280130DE0003107C
:10025000DA0DDB0DDC0DDD0DDE0B27290130FD0293
:100260007D08031D3429352925297C0803193929DE
:100270003A294529DA09DB09DC09DD09DA0A03191B
:10028000DB0A0319DC0A0319DD0A080083160313CD
:10029000290883120313E800831603132A08831224
:1002A0000313E900831603132B0883120313EA00D8
:1002B000EB01EB0A0A128A1103200A128A11C929DA
:1002C0000A128A15F6240A128A117008831203137F
:1002D000E3007108E400E501E6016608F70065083F
:1002E000F6006408F5006308F40000300A128A1171
:1002F000DB210A128A11770883120313AD007608F6
:10030000AC007508AB007408AA004430A9007F3027
:10031000A800C030A7000030A6000A128A11972258
:100320000A128A11831203132908C7002808C6007D
:100330002708C5002608C4004230C300C630C200EA
:100340000030C1000030C0000A128A1174240A1261
:100350008A11831203134308DD004208DC004108C0
:10036000DB004008DA000A128A11CA200A128A1138
:10037000831203135A08E7006708EC006C08E300D7
:100380006308FC0068300A128A114F200A128A1191
:10039000C929831203136B08E300E4016408003ADF
:1003A0000319D329C9296308013A03196029C92906
:1003B0000A128A11002883120313A00020080319CF
:1003C000E229E329F729F71FE629E729F729740924
:1003D000A2007509A3007609A4007709A500A20A66
:1003E0000319A30A0319A40A0319A50AFF29770808
:1003F000A5007608A4007508A3007408A200770879
:10040000760475047404031D062A072A102A003096
:10041000F7000030F6000030F5000030F400962AB6
:100420009630F8007808A100222A0130F8007808F8
:10043000A10701300310A50CA40CA30CA20CFF3ED5
:10044000031D1A2AFE302505031D272A282A152AEE
:10045000442A0130F8007808A1070130A2070030D3
:1004600003180130A307003003180130A40700303F
:1004700003180130A50701300310A50CA40CA30C30
:10048000A20CFF3E031D3C2AFF302505031D492A0F
:100490004A2A292A562A0130A1020130F800031005
:1004A000A20DA30DA40DA50DF80B4F2AA41B592ACC
:1004B0005A2A602A0230210203185F2A602A4B2A36
:1004C0002118632A642A6C2AFF30A205FF30A30595
:1004D0007F30A405FF30A5050310A10C2108F8000A
:1004E000F901FA01FB0118300310F80DF90DFA0DAE
:1004F000FB0DFF3E031D742A7808A2047908A304AB
:100500007A08A4047B08A50420080319882A892AEC
:100510008E2AF71F8C2A8D2A8E2AA5172508F70008
:100520002408F6002308F5002208F40008008312CE
:1005300003132D088039AE002E08B7002D08AE0039
:100540002E07AF002F08BE00AC1FA72AA82AA92A91
:100550003E143E080319AD2AAE2ABE2A3E0A031DE8
:10056000B22AB32ABB2A0030AD000030AC00003004
:10057000AB000030AA00AC17AD01C62A0030AD00B8
:100580000030AC000030AB000030AA0029088039F0
:10059000AE002E08B7062908AE002E07AF002F08C0
:1005A000BF00A81FD42AD52AD62A3F143F08031912
:1005B000DA2ADB2AEB2A3F0A031DDF2AE02AE82A8F
:1005C0000030A9000030A8000030A7000030A600CD
:1005D000A817A901F32A0030A9000030A8000030B4
:1005E000A7000030A6002908280427042604031DBC
:1005F000FA2AFB2A142B0030AD000030AC0000308A
:10060000AB000030AA008030AC047F30AD04370866
:10061000AE002E08AD042D08A9002C08A8002B0858
:10062000A7002A08A600732C3E08031D182B192BBF
:10063000222B0030A9000030A8000030A7000030B5
:10064000A600732C3E08AE00AF012F08B1003F0892
:100650002E02B000031CB10330087F3EB800310801
:100660000318013E003EB9002D08B6002C08B50065
:100670002B08B4002A08B3000030AD000030AC00F5
:100680000030AB000030AA000030BD000030BC00DC
:100690000030BB000030BA00BF01982B3F0803199F
:1006A000522B532B732B0130AE000310B30DB40D3E
:1006B000B50DB60DAE0B552B0130AE000310AA0DD3
:1006C000AB0DAC0DAD0DAE0B5E2BBD1F682B692BBA
:1006D0006A2B2A140130AE000310BA0DBB0DBC0DFD
:1006E000BD0DAE0B6C2B29083602031D812B28088B
:1006F0003502031D812B27083402031D812B260898
:100700003302031C842B852B942B3D172608B30240
:100710002708031C270FB4022808031C280FB50262
:100720002908031C290FB6020130AE002E08BF07AE
:100730001A303F02031C9D2B9E2B4E2B360835048E
:10074000340433040319A52BA62BC52B3A14C52B4F
:100750000130AE000310AA0DAB0DAC0DAD0DAE0B0C
:10076000AA2BBD1FB42BB52BB62B2A140130AE001B
:100770000310BA0DBB0DBC0DBD0DAE0BB82BFF3079
:10078000B8070318B90AFF30B907AC1FC82BC92B2B
:10079000A82BBF01BD1FCD2BCE2BEA2BFF303A0576
:1007A000AE00FF303B05AF00FF303C05B0007F30AE
:1007B0003D05B100310830042F042E040319E12B4C
:1007C000E22BE52BBF01BF0AEA2B2A1CE82BE92B01
:1007D000EA2BE22B3F080319EE2BEF2B202C0130E4
:1007E000AA07003003180130AB07003003180130AE
:1007F000AC07003003180130AD072D1C002C012C74
:10080000202C2A08AE002B08AF002C08B0002D08C1
:10081000B1000130B200310DB10CB00CAF0CAE0C18
:10082000B20B0B2C3108AD003008AC002F08AB0028
:100830002E08AA000130B8070318B90A0030B9071A
:100840003908803AFF0080307F02031D292CFF30D9
:100850003802031C2C2C2D2C3B2CFF30831203134D
:10086000B8000030B9000030AD000030AC000030FE
:10087000AB000030AA00831203133908803AFF004E
:1008800080307F02031D462C013038020318492CAA
:100890004A2C572C83120313B801B9010030AD0064
:1008A0000030AC000030AB000030AA00B70183126A
:1008B00003133808AE002E08BE003E1C602C612CCD
:1008C000632CAC17672C7F30AE002E08AC053E08B9
:1008D000AE0003102E0CAF002F08AD003708AE009D
:1008E0002E08AD040B2B0800831203134308803934
:1008F000C8004808CD004308C8004807C900490897
:10090000D300C21F842C852C862C53145308031942
:100910008A2C8B2C9A2C530A031D8F2C902C982CEC
:100920000030C3000030C2000030C1000030C00001
:10093000C217A22C0030C3000030C2000030C1003A
:100940000030C00047088039C8004808CD06470875
:10095000C8004807C9004908D200C61FB02CB12CF6
:10096000B22C521452080319B62CB72CC62C520ABA
:10097000031DBB2CBC2CC42C0030C7000030C600AB
:100980000030C5000030C400C617CE2C0030C700B0
:100990000030C6000030C5000030C4005208031902
:1009A000D22CD32CD82C5308031DD72CD82CE12CB7
:1009B0000030C3000030C2000030C1000030C00071
:1009C000D42F4008C8004808F00046080A128A15CB
:1009D0004B250A128A11710883120313D90070087B
:1009E000D8005808C800C901CA01CB014B08D10082
:1009F0004A08D0004908CF004808CE005908C8006E
:100A0000C901CA01CB014B08D7004A08D6004908E2
:100A1000D5004808D4004108C8004808F00045083F
:100A20000A128A154B250A128A11710883120313C0
:100A3000D9007008D8005808C800C901CA01CB0104
:100A40004808CE07490803110318013E0319292D50
:100A5000CF074A0803110318013E0319302DD007B0
:100A60004B0803110318013E0319372DD10759080C
:100A7000C800C901CA01CB014808D40749080311BD
:100A80000318013E0319452DD5074A080311031821
:100A9000013E03194C2DD6074B0803110318013EE4
:100AA0000319532DD7074208C8004808F00044082E
:100AB0000A128A154B250A128A1171088312031330
:100AC000D9007008D8005808C800C901CA01CB0174
:100AD0004808CE07490803110318013E0319712D78
:100AE000CF074A0803110318013E0319782DD007D8
:100AF0004B0803110318013E03197F2DD107590834
:100B0000C800C901CA01CB014808D407490803112C
:100B10000318013E03198D2DD5074A080311031848
:100B2000013E0319942DD6074B0803110318013E0B
:100B300003199B2DD7070830C8000310CE0DCF0D29
:100B4000D00DD10DC80B9D2D4108C8004808F000FC
:100B500044080A128A154B250A128A117108831259
:100B60000313D9007008D8005808C8005908C900F4
:100B7000CA01CB014808CE07490803110318013EFA
:100B80000319C32DCF074A0803110318013E0319A7
:100B9000CA2DD0074B0803110318013E0319D12DAC
:100BA000D1074008C8004808F00045080A128A1515
:100BB0004B250A128A11710883120313D900700899
:100BC000D8005808C8005908C900CA01CB01480814
:100BD000CE07490803110318013E0319F02DCF0772
:100BE0004A0803110318013E0319F72DD0074B08DB
:100BF00003110318013E0319FE2DD1070830C80068
:100C00000310CE0DCF0DD00DD10DC80B002E400816
:100C1000C8004808F00044080A128A154B250A1239
:100C20008A11710883120313D9007008D80058087C
:100C3000C8005908C900CA01CB014808CE074908B5
:100C400003110318013E0319262ECF074A0803118A
:100C50000318013E03192D2ED0074B08031103186A
:100C6000013E0319342ED1074108C8004808F0009E
:100C700046080A128A154B250A128A117108831236
:100C80000313D9007008D8005808C8005908C900D3
:100C9000CA01CB014808D407490803110318013ED3
:100CA0000319532ED5074A0803110318013E0319EF
:100CB0005A2ED6074B0803110318013E0319612E63
:100CC000D7074208C8004808F00045080A128A15EC
:100CD0004B250A128A11710883120313D900700878
:100CE000D8005808C8005908C900CA01CB014808F3
:100CF000D407490803110318013E0319802ED507B4
:100D00004A0803110318013E0319872ED6074B0822
:100D100003110318013E03198E2ED7074208C8009D
:100D20004808F00046080A128A154B250A128A1153
:100D3000710883120313D9007008D8005808C8003E
:100D40005908C900CA01CB0108300310C80DC90DEC
:100D5000CA0DCB0DFF3E031DA52E4808D407490838
:100D600003110318013E0319B62ED5074A080311D3
:100D70000318013E0319BD2ED6074B0803110318B3
:100D8000013E0319C42ED7074E08C8004F08C900FA
:100D90005008CA005108CB0018300310CB0CCA0C05
:100DA000C90CC80CFF3E031DCD2E4808D4074908C6
:100DB00003110318013E0319DE2ED5074A0803115B
:100DC0000318013E0319E52ED6074B08031103183B
:100DD000013E0319EC2ED7070830C8000310CE0DD2
:100DE000CF0DD00DD10DC80BEE2E53085207C80001
:100DF000C901C90D4808823ED80049080318013EC0
:100E0000FF3ED900202F0130C8000310D40DD50DAE
:100E1000D60DD70DC80B052FD11F0F2F102F112F57
:100E200054140130C8000310CE0DCF0DD00DD10DDC
:100E3000C80B132FFF30D8070318D90AFF30D90782
:100E4000D61F232F242F032FD201D11F282F292F64
:100E5000452FFF304E05C800FF304F05C900FF3059
:100E60005005CA007F305105CB004B084A044904A5
:100E7000480403193C2F3D2F402FD201D20A452FA1
:100E8000541C432F442F452F3D2F52080319492F3F
:100E90004A2F7B2F0130D407003003180130D507CB
:100EA000003003180130D607003003180130D7078F
:100EB000571C5B2F5C2F7B2F5408C8005508C900B6
:100EC0005608CA005708CB000130CC004B0DCB0CA4
:100ED000CA0CC90CC80CCC0B662F4B08D7004A08AB
:100EE000D6004908D5004808D4000130D8070318B7
:100EF000D90A0030D9075908803AFF0080307F02B4
:100F0000031D842FFF305802031C872F882F932F37
:100F10007F3083120313D7008030D6000030D50015
:100F20000030D400C82F831203135908803AFF0001
:100F300080307F02031D9E2F013058020318A12F1D
:100F4000A22FAE2F003083120313D7000030D6003B
:100F50000030D5000030D400CD01C82F8312031318
:100F60005808C8004808D300FF30D405FF30D50525
:100F70007F30D6050030D705531CBF2FC02FC12F9F
:100F8000D6175308C8000310480CC9004908D700F9
:100F90004D08C8004808D7045708C3005608C200C7
:100FA0005508C1005408C0000800831603130A1234
:100FB0008A159B240A128A11A9000A128A159C24F8
:100FC0000A128A11AA000A128A159D240A128A118D
:100FD000AB00831203130A128A159A240A128A118B
:100FE000ED0083160313A001A101A201A301A40136
:100FF000A501A601A701A80183010A128A114629A9
:1010000008308A000408840A82070034203420341F
:10101000543449344D344534203420342034203481
:0E10200020344534203420345334503400340E
:1019340001344F344E340034831603139F1783123B
:1019440003131F1408000A128A15D8240A128A15D0
:1019540083160313111408000A128A15D8240A12D4
:101964008A1583160313111508000A128A15AE246A
:101974000A128A150A128A15A5240A128A15080061
:10198400F0000A128A15D8240A128A1570088312E4
:1019940003139300080083160313880109118910A7
:1019A4000A128A15C7250A128A150800831603131A
:1019B4001419DD2CDE2CD82C11081F39031DE32C3F
:1019C400E42CD82C0800FA00F00179080A128A15D0
:1019D40008250A128A15F001F00A7A080A128A15F3
:1019E40008250A128A150800831203131F151F19EC
:1019F400FC2CFD2CF92C1E08F300831603131E087F
:101A0400F2007308F1007208F0000800F300701887
:101A14000C2D102D831203130915132D8312031398
:101A24000911730888008914A630F100F10B182DF0
:101A340000008312031389101B30F2009E30F10062
:101A4400F10B222DF20B222D00000800F1000A12E6
:101A54008A15D8240A128A158316031391150A12BB
:101A64008A15D8240A128A15831203131308F00066
:101A74007008F2007103031D402D412D452D83167E
:101A840003139116482D831603139112111672082D
:101A94000800F800F401F5017008F200F30172087F
:101AA400F6007308F700781C582D592D5F2D760821
:101AB400F4070318F50A7708F50701300310F60D4B
:101AC400F70DFF3E031D602D0310F80C7808031D6D
:101AD4006C2D6D2D552D7508F1007408F00008006B
:101AE400F600F00174080A128A1508250A128A15EC
:101AF4008D2DF001F00A760884000A128A15002060
:101B04000A128A150A128A1508250A128A15013042
:101B1400F5007508F607760884000A128A15002075
:101B24000A128A15003A031D982D992D7B2D080061
:101B3400F4000A128A15A5240A128A15D0300A1252
:101B44008A15C2240A128A1574080A128A15C22434
:101B54000A128A150A128A15B7240A128A15D13074
:101B64000A128A15C2240A128A1500300A128A152A
:101B740028250A128A15F3007308F5000A128A153B
:101B8400AE240A128A1575080800C330F500CD305A
:101B9400F400F40BCB2DF50BCB2DF00133300A12EE
:101BA4008A1508250A128A151B30F5009E30F400A8
:101BB400F40BDA2DF50BDA2D0000F00133300A12A4
:101BC4008A1508250A128A15A630F400F40BE82DAC
:101BD4000000F00133300A128A1508250A128A150A
:101BE400F32DF42D0000F00138300A128A1508256F
:101BF4000A128A15A630F400F40BFE2D0000F00141
:101C040001300A128A1508250A128A15A630F40032
:101C1400F40B0A2E0000F0010C300A128A15082574
:101C24000A128A15A630F400F40B162E00000800E0
:101C3400F601F31F1E2E1F2E262EF209F309F20AB7
:101C44000319F30AF601F60AF11F292E2A2E2F2E64
:101C5400F009F109F00A0319F10A70087104031973
:101C6400342E352E642EF501F50A432E013003106F
:101C7400F00DF10DFF3E031D392E0130F400740800
:101C8400F507F11F462E472E382E71087302031DE7
:101C94004D2E70087202031C502E512E572E7008C0
:101CA400F2027108031CF303F30201300310F10C78
:101CB400F00CFF3E031D582E0130F502031D632E68
:101CC400642E472E76080319682E692E6E2EF209AB
:101CD400F309F20A0319F30A7308F1007208F00019
:101CE400080002300A128A159A250A128A15F6008B
:101CF400760883160313A60001300A128A159A2562
:101D04000A128A15F600760883160313A70000301A
:101D14000A128A159A250A128A15F600760883167D
:101D24000313A8002608F60004300310F60CFF3E47
:101D3400031D972E76080339303EF7007708A0007C
:101D440026080F39303EF6007608A1002708F60071
:101D540004300310F60CFF3E031DAB2E7608073942
:101D6400303EF7007708A20027080F39303EF6000E
:101D74007608A3002808F60004300310F60CFF3E92
:101D8400031DBF2E76080739303EF7007708A400FC
:101D940028080F39303EF6007608A50008000A121C
:101DA4008A1573260A128A15C230FB007B08F900D3
:101DB4008316031320080A128A15E5240A128A15C9
:101DC400C330FB007B08F9008316031321080A12B1
:101DD4008A15E5240A128A15C430FB007B08F90031
:101DE4003A300A128A15E5240A128A15C530FB0016
:101DF4007B08F9008316031322080A128A15E524C6
:101E04000A128A15C630FB007B08F90083160313F7
:101E140023080A128A15E5240A128A15C730FB0022
:101E24007B08F9003A300A128A15E5240A128A1549
:101E3400C830FB007B08F9008316031324080A1238
:101E44008A15E5240A128A15C930FB007B08F900BB
:101E54008316031325080A128A15E5240A128A1523
:101E640008000030FC000030FB000030FA000030B5
:101E7400F90073087204710470040319422F432F8C
:101E8400902FFD01FD0A532F0130F8000310F00DCF
:101E9400F10DF20DF30DF80B482F0130F80078081E
:101EA400FD07F31F562F572F462F0130F80003105C
:101EB400F90DFA0DFB0DFC0DF80B592F7308770281
:101EC400031D6E2F72087602031D6E2F71087502B2
:101ED400031D6E2F70087402031C712F722F812F43
:101EE4007008F4027108031C710FF5027208031CD8
:101EF400720FF6027308031C730FF7027914013092
:101F04000310F30CF20CF10CF00CFF3E031D822FB6
:101F14000130FD02031D8F2F902F572F7C08F300F3
:101F24007B08F2007A08F1007908F0000800F60155
:101F3400F11F9D2F9E2FA52FF009F109F00A031917
:101F4400F10AF601F60AF31FA82FA92FB22FF209FE
:101F5400F309F20A0319F30A0130F4007408F606CF
:101F6400F701F801700871040319B92FBA2FF12F82
:101F7400F501F50AC82F01300310F00DF10DFF3EF5
:101F8400031DBE2F0130F4007408F507F11FCB2F99
:101F9400CC2FBD2F01300310F70DF80DFF3E031DAC
:101FA400CD2F71087302031DD92F70087202031C10
:101FB400DC2FDD2FE42F7008F2027108031CF303F9
:101FC400F302771401300310F10CF00CFF3E031DF3
:101FD400E52F0130F502031DF02FF12FCC2F7608E9
:101FE4000319F52FF62FFB2FF709F809F70A031940
:0C1FF400F80A7808F1007708F0000800F7
:08400000FF3FFF3FFF3FFF3FC0
:02400E00FB3F76
:00000001FF
