:100000000A128A11D62FFD000A128A1512250A1229
:100010008A11BD30FA007A08F0000630F100003095
:10002000F200B2300A128A1556220A128A117D088D
:10003000FA007A08F0000230F1000030F200B83027
:100040000A128A1556220A128A110A30F00000306C
:10005000F1007908FA00FB017A08F2007B08F3004E
:100060000A128A15AB240A128A117008303EFC006D
:100070007C0883160313BA000A30F0000030F10048
:100080007908FA00FB017A08F2007B08F3000A12F3
:100090008A152E230A128A117008303EFC007C0853
:1000A00083160313BB00BC010A128A1593220A129D
:1000B0008A110800831203132D088039AE002E0820
:1000C000B7002D08AE002E07AF002F08BE00AC1FF2
:1000D0006A286B286C283E143E0803197028712882
:1000E00081283E0A031D752876287E280030AD0041
:1000F0000030AC000030AB000030AA00AC17AD01FE
:1001000089280030AD000030AC000030AB0000307A
:10011000AA0029088039AE002E08B7062908AE00CB
:100120002E07AF002F08BF00A81F972898289928EE
:100130003F143F0803199D289E28AE283F0A031D3F
:10014000A228A328AB280030A9000030A800003066
:10015000A7000030A600A817A901B6280030A90002
:100160000030A8000030A7000030A60029082804AD
:1001700027042604031DBD28BE28D7280030AD0063
:100180000030AC000030AB000030AA008030AC047E
:100190007F30AD043708AE002E08AD042D08A9004D
:1001A0002C08A8002B08A7002A08A600362A3E081B
:1001B000031DDB28DC28E5280030A9000030A8005A
:1001C0000030A7000030A600362A3E08AE00AF017E
:1001D0002F08B1003F082E02B000031CB103300805
:1001E0007F3EB80031080318013E003EB9002D08DB
:1001F000B6002C08B5002B08B4002A08B300003064
:10020000AD000030AC000030AB000030AA00003080
:10021000BD000030BC000030BB000030BA00BF01A0
:100220005B293F0803191529162936290130AE002C
:100230000310B30DB40DB50DB60DAE0B182901307A
:10024000AE000310AA0DAB0DAC0DAD0DAE0B212908
:10025000BD1F2B292C292D292A140130AE00031093
:10026000BA0DBB0DBC0DBD0DAE0B2F2929083602F2
:10027000031D442928083502031D44292708340298
:10028000031D442926083302031C472948295729FE
:100290003D172608B3022708031C270FB4022808BD
:1002A000031C280FB5022908031C290FB6020130D0
:1002B000AE002E08BF071A303F02031C60296129D7
:1002C00011293608350434043304031968296929CF
:1002D00088293A1488290130AE000310AA0DAB0D0D
:1002E000AC0DAD0DAE0B6D29BD1F7729782979298D
:1002F0002A140130AE000310BA0DBB0DBC0DBD0DAC
:10030000AE0B7B29FF30B8070318B90AFF30B907D5
:10031000AC1F8B298C296B29BF01BD1F9029912906
:10032000AD29FF303A05AE00FF303B05AF00FF308E
:100330003C05B0007F303D05B100310830042F048A
:100340002E040319A429A529A829BF01BF0AAD2994
:100350002A1CAB29AC29AD29A5293F080319B129CD
:10036000B229E3290130AA07003003180130AB0796
:10037000003003180130AC07003003180130AD071E
:100380002D1CC329C429E3292A08AE002B08AF007D
:100390002C08B0002D08B1000130B200310DB10CB5
:1003A000B00CAF0CAE0CB20BCE293108AD0030084A
:1003B000AC002F08AB002E08AA000130B8070318C4
:1003C000B90A0030B9073908803AFF0080307F024F
:1003D000031DEC29FF303802031CEF29F029FE2908
:1003E000FF3083120313B8000030B9000030AD00B5
:1003F0000030AC000030AB000030AA0083120313C1
:100400003908803AFF0080307F02031D092A01303D
:10041000380203180C2A0D2A1A2A83120313B80172
:10042000B9010030AD000030AC000030AB0000304E
:10043000AA00B701831203133808AE002E08BE00CD
:100440003E1C232A242A262AAC172A2A7F30AE00F3
:100450002E08AC053E08AE0003102E0CAF002F088E
:10046000AD003708AE002E08AD04CE2808000A12F1
:100470008A15FC200A128A11413083120313E70007
:100480006708F00001300A128A15C8210A128A1181
:100490000A128A1587230A128A1183120313E700AE
:1004A000670883160313B100AF01430883120313D7
:1004B000E7006708F000AB300A128A15B8200A126C
:1004C0008A1183160313310883120313E7006708A8
:1004D000F900AB300A128A1103200A128A1183161E
:1004E0000313A801A80AB00101300A128A1571216C
:1004F0000A128A1183120313E70067088316031395
:10050000AE00A901AA01013083160313A90703183D
:10051000AA0A0030AA072A08803AFF0080307F022A
:10052000031D942A1E302902031C972A982A832A25
:100530005A2C83160313AF01AF0A44088312031326
:10054000E7006708F000AB300A128A15B8200A12DB
:100550008A110A128A1587230A128A118312031339
:10056000E700670883160313B100310883120313F1
:10057000E7006708F900AB300A128A1103200A125B
:100580008A1183160313310883120313E7006708E7
:10059000FC00AB300A128A1502260A128A11742A4C
:1005A0000830831603132F020318D72AD82A712C78
:1005B00002302F02031CDD2ADE2AF62A2F088312BE
:1005C0000313E700E801670883160313A2008312F0
:1005D0000313680883160313A30001308312031367
:1005E000E700670883160313AF07062B0230AF003E
:1005F00083120313E700E801670883160313A200C0
:1006000083120313680883160313A3002208C33E52
:1006100084008313000883120313E7006708F000C7
:10062000AB300A128A15B8200A128A110A128A15EA
:1006300087230A128A1183120313E70067088316BF
:100640000313B100310883120313E7006708F900B0
:10065000AB300A128A1103200A128A11831603137F
:10066000310883120313E7006708FC00AB300A125D
:100670008A1502260A128A11742A0330831603137C
:100680002F02031C442B452B712C0130AF022F0885
:10069000C33E84008313000883120313E700670836
:1006A000F000AB300A128A15B8200A128A110A1219
:1006B0008A1587230A128A1183120313E700670839
:1006C00083160313B100310883120313E700670890
:1006D000F900AB300A128A1103200A128A1183161C
:1006E0000313310883120313E7006708FC00AB30E3
:1006F0000A128A1502260A128A11742A0A168A1107
:1007000084270A128A112530F6008030F7008030E5
:1007100083120313E7006708F8000A128A15F5210F
:100720000A128A113630F6008030F700C630831284
:100730000313E7006708F8000A128A15F5210A1268
:100740008A11023083120313E7006708831603132C
:10075000A800742A0A128A1587230A128A118312A2
:100760000313E700670883160313B10031088312EF
:100770000313E7006708FC00AB300A128A15022653
:100780000A128A11742A831603132E088312031384
:10079000E700E8016808003A0319CF2BAA2B670885
:1007A0002F3A03197E2B183A03197E2B0C3A0319A2
:1007B0003D2B063A0319D02A033A0319992AAA2B8A
:1007C00000300A128A158F260A128A1170088316C1
:1007D0000313A0007108A1002008F6002108F7000B
:1007E000C03083120313E7006708F8000A128A1565
:1007F000F5210A128A111F30831603132E06031DDA
:10080000022C032C742A033083120313E7006708B9
:1008100083160313A800742A3730831603132E0699
:10082000031D132C142C2D2C3008013E0A128A159E
:1008300047210A128A11831603133008013EA400CF
:10084000003003180130A500240883120313E700C9
:10085000670883160313B000742A2F302E06031D79
:10086000322C332C4C2C3008FF3E0A128A154721BB
:100870000A128A11831603133008FF3EA600FF30C8
:1008800003180030A700260883120313E700670847
:1008900083160313B000742A1F302E06031D512C3B
:1008A000522C532C6F2A30080A128A1547210A123B
:1008B0008A11742A83160313280883120313E7008E
:1008C000E8016808003A0319662C742A6708013A9F
:1008D0000319C32B033A0319E02B013A03190C2C1B
:1008E000742A742A0A128A110028831203134308F7
:1008F0008039C8004808CD004308C8004807C9002F
:100900004908D300C21F852C862C872C531453080A
:1009100003198B2C8C2C9B2C530A031D902C912C8F
:10092000992C0030C3000030C2000030C1000030FC
:10093000C000C217A32C0030C3000030C20000303A
:10094000C1000030C00047088039C8004808CD0603
:100950004708C8004807C9004908D200C61FB12C83
:10096000B22CB32C521452080319B72CB82CC72C34
:10097000520A031DBC2CBD2CC52C0030C700003012
:10098000C6000030C5000030C400C617CF2C0030B0
:10099000C7000030C6000030C5000030C400520857
:1009A0000319D32CD42CD92C5308031DD82CD92CA3
:1009B000E22C0030C3000030C2000030C100003023
:1009C000C000D52F4008C8004808F00046080A12A9
:1009D0008A1520210A128A11710883120313D90083
:1009E0007008D8005808C800C901CA01CB014B08DB
:1009F000D1004A08D0004908CF004808CE00590865
:100A0000C800C901CA01CB014B08D7004A08D6006B
:100A10004908D5004808D4004108C8004808F0003B
:100A200045080A128A1520210A128A1171088312B8
:100A30000313D9007008D8005808C800C901CA01BA
:100A4000CB014808CE07490803110318013E0319DA
:100A50002A2DCF074A0803110318013E0319312D2F
:100A6000D0074B0803110318013E0319382DD10795
:100A70005908C800C901CA01CB014808D407490870
:100A800003110318013E0319462DD5074A08031127
:100A90000318013E03194D2DD6074B080311031807
:100AA000013E0319542DD7074208C8004808F0003A
:100AB00044080A128A1520210A128A117108831229
:100AC0000313D9007008D8005808C800C901CA012A
:100AD000CB014808CE07490803110318013E03194A
:100AE000722DCF074A0803110318013E0319792D0F
:100AF000D0074B0803110318013E0319802DD107BD
:100B00005908C800C901CA01CB014808D4074908DF
:100B100003110318013E03198E2DD5074A0803114E
:100B20000318013E0319952DD6074B08031103182E
:100B3000013E03199C2DD7070830C8000310CE0DC5
:100B4000CF0DD00DD10DC80B9E2D4108C80048080F
:100B5000F00044080A128A1520210A128A1171082D
:100B600083120313D9007008D8005808C800590828
:100B7000C900CA01CB014808CE0749080311031870
:100B8000013E0319C42DCF074A0803110318013E83
:100B90000319CB2DD0074B0803110318013E03198D
:100BA000D22DD1074008C8004808F00045080A12B5
:100BB0008A1520210A128A11710883120313D900A1
:100BC0007008D8005808C8005908C900CA01CB01EC
:100BD0004808CE07490803110318013E0319F12DF7
:100BE000CF074A0803110318013E0319F82DD00757
:100BF0004B0803110318013E0319FF2DD1070830DC
:100C0000C8000310CE0DCF0DD00DD10DC80B012E95
:100C10004008C8004808F00044080A128A1520213C
:100C20000A128A11710883120313D9007008D800C0
:100C30005808C8005908C900CA01CB014808CE07A6
:100C4000490803110318013E0319272ECF074A084C
:100C500003110318013E03192E2ED0074B08031170
:100C60000318013E0319352ED1074108C800480872
:100C7000F00046080A128A1520210A128A1171080A
:100C800083120313D9007008D8005808C800590807
:100C9000C900CA01CB014808D40749080311031849
:100CA000013E0319542ED5074A0803110318013ECB
:100CB00003195B2ED6074B0803110318013E0319D5
:100CC000622ED7074208C8004808F00045080A12FB
:100CD0008A1520210A128A11710883120313D90080
:100CE0007008D8005808C8005908C900CA01CB01CB
:100CF0004808D407490803110318013E0319812E3F
:100D0000D5074A0803110318013E0319882ED60798
:100D10004B0803110318013E03198F2ED707420811
:100D2000C8004808F00046080A128A1520210A1255
:100D30008A11710883120313D9007008D80058086B
:100D4000C8005908C900CA01CB0108300310C80DFA
:100D5000C90DCA0DCB0DFF3E031DA62E4808D407B2
:100D6000490803110318013E0319B72ED5074A0895
:100D700003110318013E0319BE2ED6074B080311B9
:100D80000318013E0319C52ED7074E08C8004F08A7
:100D9000C9005008CA005108CB0018300310CB0C12
:100DA000CA0CC90CC80CFF3E031DCE2E4808D40740
:100DB000490803110318013E0319DF2ED5074A081D
:100DC00003110318013E0319E62ED6074B08031141
:100DD0000318013E0319ED2ED7070830C800031091
:100DE000CE0DCF0DD00DD10DC80BEF2E53085207ED
:100DF000C800C901C90D4808823ED8004908031837
:100E0000013EFF3ED900212F0130C8000310D40D50
:100E1000D50DD60DD70DC80B062FD11F102F112FB2
:100E2000122F54140130C8000310CE0DCF0DD00D79
:100E3000D10DC80B142FFF30D8070318D90AFF3083
:100E4000D907D61F242F252F042FD201D11F292FD8
:100E50002A2F462FFF304E05C800FF304F05C9002E
:100E6000FF305005CA007F305105CB004B084A04C3
:100E70004904480403193D2F3E2F412FD201D20AC5
:100E8000462F541C442F452F462F3E2F520803193E
:100E90004A2F4B2F7C2F0130D4070030031801302C
:100EA000D507003003180130D60700300318013091
:100EB000D707571C5C2F5D2F7C2F5408C80055089E
:100EC000C9005608CA005708CB000130CC004B0DB2
:100ED000CB0CCA0CC90CC80CCC0B672F4B08D70025
:100EE0004A08D6004908D5004808D4000130D80780
:100EF0000318D90A0030D9075908803AFF0080301A
:100F00007F02031D852FFF305802031C882F892F75
:100F1000942F7F3083120313D7008030D600003027
:100F2000D5000030D400C92F831203135908803A2A
:100F3000FF0080307F02031D9F2F013058020318ED
:100F4000A22FA32FAF2F003083120313D70000303E
:100F5000D6000030D5000030D400CD01C92F831257
:100F600003135808C8004808D300FF30D405FF30E9
:100F7000D5057F30D6050030D705531CC02FC12FB3
:100F8000C22FD6175308C8000310480CC9004908DF
:100F9000D7004D08C8004808D7045708C3005608B2
:100FA000C2005508C1005408C00008008313CB30AC
:100FB000FD001730FE004930FF00C33084000A16E0
:100FC0008A11C5270A128A110A128A155F200A128D
:100FD0008A11ED000A128A1560200A128A11EE00A9
:100FE000B2308400C3300A168A1141270A128A11CE
:100FF000E901EA01EB01EC0183010A128A11372AA7
:10100000FF1B0A2883137F1883170008840A03191B
:10101000FF0A080008308A000408840A82070034A6
:10102000233420342034543449344D34453420346E
:1010300020342034203420344534203420345334B8
:10104000503400344E346F3420344C346F346734B1
:101050007334203441347634613469346C3461340F
:1010600062346C3465340034203445344E345434A6
:10107000453452342034503441345334533457348B
:101080004F34523444340034203420340034433458
:10109000203400344734313400344734323400349F
:1010A00047343334003447343434003447344E3416
:1010B00000344F344E340034473452340034FF345B
:1010C000013400300A128A159B210A128A15F60093
:1010D0007608F70077087F39F6007608F70077087A
:1010E000F6007608F10000300A128A157A200A12FA
:1010F0008A150800F2000A168A1151270A128A1569
:10110000D0300A168A116E270A128A1572080A163A
:101110008A116E270A128A1571080A168A116E271B
:101120000A128A150A168A115A270A128A15080005
:10113000F30070189C28A028831203130915A32814
:10114000831203130911730888008914A630F10073
:10115000F10BA82800008312031389101B30F20042
:101160009E30F100F10BB228F20BB228000008000B
:10117000F3007308F1007108F200C6280130F10095
:101180007108F2070130F1007108F007700884005F
:101190000A128A150A200A128A15F10072088400C0
:1011A0007108831380000008031DD728D828BE28A3
:1011B0000800F1000A168A1191270A128A1583166F
:1011C000031391150A168A1191270A128A158312A0
:1011D00003131308F0007008F2007103031DF128D7
:1011E000F228F628831603139116F92883160313A1
:1011F00091121116720808000A168A1179270A122C
:101200008A150A168A1134270A128A150A168A11B3
:101210003A270A128A15003083120313A300013003
:10122000A2008630A100A030A0000A128A15242254
:101230000A128A150A128A1561200A128A150800F4
:10124000F800F401F5017008F200F3017208F600ED
:101250007308F700781C2D292E2934297608F40705
:101260000318F50A7708F50701300310F60DF70D9E
:10127000FF3E031D35290310F80C7808031D412992
:1012800042292A297508F1007408F0000800FA00C4
:10129000831203136C087A0203184F29502970290E
:1012A0000130F6008030F7008030F9007908F8004E
:1012B0000A128A15F5210A128A157A080A128A1565
:1012C0008F260A128A157008F6007108F700C030E0
:1012D000F9007908F8000A128A15F5210A128A1510
:1012E0000800F1007108031D762977297C298312F3
:1012F000031306083F399A293F308312031306056A
:10130000F0003F3070060319862987298E296E0860
:1013100003198B298C298E29EE0177293F30060588
:10132000F0003F307006031D962997299929EE0198
:10133000EE0A3F300800F4000A168A1151270A12FB
:101340008A15D0300A168A116E270A128A15740877
:101350000A168A116E270A128A150A168A1163273D
:101360000A128A15D1300A168A116E270A128A15B6
:1013700000300A128A15D9200A128A15F300730860
:10138000F5000A168A115A270A128A1575080800EC
:10139000F200831603178C18CE29CF29C9297208A9
:1013A000831203178D0070088C003F30F100710824
:1013B000831603178C058312031303108B1FE12977
:1013C000E229E32903148B13831603170C155530F8
:1013D0008D00AA308D008C140C1183120313031C92
:1013E000F229F329F4298B170800F00178080A1272
:1013F0008A1598200A128A15132AF001F00A770834
:10140000FF00760884000A128A1500200A128A1545
:101410000A128A1598200A128A150130F607031855
:10142000F70A0030F707770883120313FF007608E6
:1014300084000A128A1500200A128A15003A031D38
:10144000222A232AFD290800831203139415200859
:10145000A4002108A5002208A6002308A700023046
:101460000310A40DA50DA60DA70DFF3E031D302AE8
:101470002708F3002608F2002508F1002408F000F0
:101480000130F7003130F6002D30F5000030F40067
:101490000A128A1545240A128A157008FF3E83161F
:1014A000031393008312031394160800F4007408C6
:1014B000F3007308F500752A0130F1020030031CB7
:1014C000F203F202700884000130F0078313000871
:1014D000F300750884000130F507730880000008E8
:1014E000031D732A742A752A842A71087204031D45
:1014F0007A2A7B2A5C2A842A750884008313800157
:101500000130F3007308F5070130F1020030031CCD
:10151000F203F202710A031D912A720A031D912A35
:10152000922A7C2A08000130F40074088312031305
:10153000ED070A306D02031C9E2A9F2AA02AED01A6
:101540000A30F4007408F0006D080A168A11D427D6
:101550000A128A15053EF5007508F600F701F80134
:10156000C52A7708B23E84000008F4007408F00031
:10157000770876070A128A15C8210A128A150130DF
:10158000F7070318F80A0030F8077708B23E84001E
:1015900083130008031DCD2ACE2AB12A0A308312F4
:1015A00003136C020318D52AD62ADA2A0130F40074
:1015B0007408EC070800C330F500CD30F400F40BDC
:1015C000DF2AF50BDF2AF00133300A128A15982042
:1015D0000A128A151B30F5009E30F400F40BEE2A37
:1015E000F50BEE2A0000F00133300A128A1598201C
:1015F0000A128A15A630F400F40BFC2A0000F00150
:1016000033300A128A1598200A128A15072B082BE4
:101610000000F00138300A128A1598200A128A1543
:10162000A630F400F40B122B0000F00101300A1276
:101630008A1598200A128A15A630F400F40B1E2B86
:101640000000F0010C300A128A1598200A128A153F
:10165000A630F400F40B2A2B00000800F601F31F5B
:10166000322B332B3A2BF209F309F20A0319F30A4E
:10167000F601F60AF11F3D2B3E2B432BF009F10931
:10168000F00A0319F10A700871040319482B492B59
:10169000782BF501F50A572B01300310F00DF10DF1
:1016A000FF3E031D4D2B0130F4007408F507F11FB8
:1016B0005A2B5B2B4C2B71087302031D612B700896
:1016C0007202031C642B652B6B2B7008F2027108ED
:1016D000031CF303F30201300310F10CF00CFF3E86
:1016E000031D6C2B0130F502031D772B782B5B2B30
:1016F000760803197C2B7D2B822BF209F309F20A61
:101700000319F30A7308F1007208F00008000A16C2
:101710008A11AF270A128A15700883120313E30097
:101720007108E400E501E6016608F7006508F600C7
:101730006408F5006308F40000300A128A15442793
:101740000A128A15770883120313AD007608AC00DD
:101750007508AB007408AA004430A9007F30A800C7
:10176000C030A7000030A6000A128A115A200A12BF
:101770008A15831203132908C7002808C600270802
:10178000C5002608C4004230C300C630C200003085
:10179000C1000030C0000A128A1175240A128A158D
:1017A000831203134308DD004208DC004108DB001C
:1017B0004008DA000A128A1586250A128A15831251
:1017C00003135A0808000A128A1512250A128A15EC
:1017D000C230FB007B08F900831603133D080A168C
:1017E0008A119E270A128A15C330FB007B08F90074
:1017F000831603133E080A168A119E270A128A15B9
:10180000C430FB007B08F9003A300A168A119E2783
:101810000A128A15C530FB007B08F90083160313F2
:101820003F080A168A119E270A128A15C630FB0045
:101830007B08F9008316031340080A168A119E27B5
:101840000A128A15C730FB007B08F9003A300A16E5
:101850008A119E270A128A15C830FB007B08F900FE
:101860008316031341080A168A119E270A128A1545
:10187000C930FB007B08F9008316031342080A16DF
:101880008A119E270A128A1508000030FC000030D9
:10189000FB000030FA000030F90073087204710494
:1018A00070040319542C552CA22CFD01FD0A652C43
:1018B0000130F8000310F00DF10DF20DF30DF80BEF
:1018C0005A2C0130F8007808FD07F31F682C692CAA
:1018D000582C0130F8000310F90DFA0DFB0DFC0D2A
:1018E000F80B6B2C73087702031D802C72087602AC
:1018F000031D802C71087502031D802C7008740272
:10190000031C832C842C932C7008F4027108031C94
:10191000710FF5027208031C720FF6027308031CA4
:10192000730FF702791401300310F30CF20CF10C71
:10193000F00CFF3E031D942C0130FD02031DA12C71
:10194000A22C692C7C08F3007B08F2007A08F100D5
:101950007908F0000800F601F11FAF2CB02CB72C6D
:10196000F009F109F00A0319F10AF601F60AF31F6A
:10197000BA2CBB2CC42CF209F309F20A0319F30A9E
:101980000130F4007408F606F701F80170087104DC
:101990000319CB2CCC2C032DF501F50ADA2C0130E0
:1019A0000310F00DF10DFF3E031DD02C0130F400AB
:1019B0007408F507F11FDD2CDE2CCF2C013003104D
:1019C000F70DF80DFF3E031DDF2C71087302031D98
:1019D000EB2C70087202031CEE2CEF2CF62C700816
:1019E000F2027108031CF303F302771401300310B1
:1019F000F10CF00CFF3E031DF72C0130F502031D26
:101A0000022D032DDE2C76080319072D082D0D2D30
:101A1000F709F809F70A0319F80A7808F1007708B6
:101A2000F000080002300A128A159B210A128A155A
:101A3000F600760883120313E90001300A128A15B2
:101A40009B210A128A15F600760883120313EA0016
:101A500000300A128A159B210A128A15F6007608B0
:101A600083120313EB006908F60004300310F60C30
:101A7000FF3E031D362D76080339303EF700770808
:101A800083160313BD008312031369080F39303E18
:101A9000F600760883160313BE00831203136A0848
:101AA000F60004300310F60CFF3E031D522D76089D
:101AB0000739303EF700770883160313BF008312FF
:101AC00003136A080F39303EF600760883160313B5
:101AD000C000831203136B08F60004300310F60CE9
:101AE000FF3E031D6E2D76080739303EF70077085C
:101AF00083160313C100831203136B080F39303EA2
:101B0000F600760883160313C20008000310831240
:101B100003135C0D5D0DDE005E08FD007D08031DF6
:101B2000922D932D9C2D0030DD000030DC00003024
:101B3000DB000030DA00012E5A08DE005B08DF000F
:101B40005C08E0005D08E1001F300310E10CE00CD0
:101B5000DF0CDE0CFF3E031DA52D5E08E2006208CF
:101B6000FC00DC17FF30DA05FF30DB05FF30DC0559
:101B70000030DD059630FD02FD1FBF2DC02DDA2D92
:101B80007D08803A973E0318C62DC72DC82D932D8A
:101B900001300310DD0CDC0CDB0CDA0CFF3E031D06
:101BA000C92D0130DE005E08FD07031DD82DD92D9B
:101BB000C82DF12D20307D02031CDF2DE02DEC2DF2
:101BC000932D0130DE000310DA0DDB0DDC0DDD0D91
:101BD000DE0BE32D0130FD027D08031DF02DF12DFC
:101BE000E12D7C080319F52DF62D012EDA09DB090C
:101BF000DC09DD09DA0A0319DB0A0319DC0A031917
:101C0000DD0A0800FD000230F6008030F700803069
:101C100083120313B4003408F8000A128A15F52160
:101C20000A128A153530F6008030F700C030831272
:101C30000313B4003408F8000A128A15F5210A12B9
:101C40008A150A128A15E3230A128A15CB308312E9
:101C50000313B4003408F9007D08840083130008DE
:101C60000A168A119E270A128A15CC308312031392
:101C7000B4003408F9007D0A8400831300080A16B2
:101C80008A119E270A128A15CD3083120313B400DD
:101C90003408F9007D08023E8400831300080A1608
:101CA0008A119E270A128A15CE3083120313B400BC
:101CB0003408F9000A30F0000030F1007C08B5006B
:101CC000B6013508F2003608F3000A128A15AB2473
:101CD0000A128A157008303E0A168A119E270A12C7
:101CE0008A15CF3083120313B4003408F9000A3088
:101CF000F0000030F1007C08B500B6013508F200B4
:101D00003608F3000A128A152E230A128A15700863
:101D1000303E0A168A119E270A128A15080083127D
:101D20000313B1006C0831020318972E982E3F2F31
:101D30000A30F4007408F00031080A168A11D4271A
:101D40000A128A15053EF500750883120313B000C8
:101D5000B201B30183120313320830070A168A1145
:101D6000E9270A128A15F400831203133208B23EDF
:101D700084007408831380000130B2070318B30A8B
:101D80000030B3073308803AFF0080307F02031D24
:101D9000CB2E0A303202031CCE2ECF2EAA2E831257
:101DA00003133108303EF4007408A0002030F40022
:101DB0007408A100831603133208F4007408831218
:101DC0000313A200831603133308F400740883126C
:101DD0000313A3003A30F4007408A400831603131D
:101DE0003408F400740883120313A5008316031348
:101DF0003508F400740883120313A6003A30F40087
:101E00007408A700831603133608F40074088312BD
:101E10000313A800831603133708F4007408831211
:101E20000313A9002030F4007408AA0083160313DA
:101E30003808F400740883120313AB0083160313ED
:101E40003908F400740883120313AC002030F40046
:101E50007408AD00831603133A08F4007408831263
:101E60000313AE00831603133B08F40074088312B7
:101E70000313AF002030F0000030F100432FFF309B
:101E8000F000FF30F100080083120313A0002008C7
:101E900003194B2F4C2F602FF71F4F2F502F602F00
:101EA0007409A2007509A3007609A4007709A500AA
:101EB000A20A0319A30A0319A40A0319A50A682F81
:101EC0007708A5007608A4007508A3007408A2008E
:101ED0007708760475047404031D6F2F702F792F13
:101EE0000030F7000030F6000030F5000030F4005C
:101EF000FF2F9630F8007808A1008B2F0130F800F2
:101F00007808A10701300310A50CA40CA30CA20CA7
:101F1000FF3E031D832FFE302505031D902F912FBB
:101F20007E2FAD2F0130F8007808A1070130A207FD
:101F3000003003180130A307003003180130A40754
:101F4000003003180130A50701300310A50CA40CC4
:101F5000A30CA20CFF3E031DA52FFF302505031D7A
:101F6000B22FB32F922FBF2F0130A1020130F80002
:101F70000310A20DA30DA40DA50DF80BB82FA41BE3
:101F8000C22FC32FC92F023021020318C82FC92F17
:101F9000B42F2118CC2FCD2FD52FFF30A205FF3025
:101FA000A3057F30A405FF30A5050310A10C21086F
:101FB000F800F901FA01FB0118300310F80DF90DD2
:101FC000FA0DFB0DFF3E031DDD2F7808A2047908F2
:101FD000A3047A08A4047B08A50420080319F12FA0
:101FE000F22FF72FF71FF52FF62FF72FA51725083C
:101FF000F7002408F6002308F5002208F400080082
:102E68008316031306083F388600080083160313E9
:102E78009F17831203131F14080064008001840A3B
:102E88000406031900340406422F4A343834473400
:102E98004D343B343E34413444340A168A11912768
:102EA8000A168A1183160313111408000A168A11C8
:102EB80091270A168A1183160313111508000A169A
:102EC8008A115A270A168A110A168A1151270A16D0
:102ED8008A110800F0000A168A1191270A168A1129
:102EE80070088312031393000800831603138801E4
:102EF800091189100A128A15DB220A168A1108009C
:102F0800F00101300A128A1598200A168A11A63093
:102F1800F400F40B8D2F0000080083160313141916
:102F2800962F972F912F11081F39031D9C2F9D2F26
:102F3800912F0800FA00F00179080A128A159820E2
:102F48000A168A11F001F00A7A080A128A159820DE
:102F58000A168A110800831203131F151F19B52FAB
:102F6800B62FB22F1E08F300831603131E08F200B3
:102F78007308F1007208F00008007E088A007F08D4
:102F880082000A168A11C1270A168A118000840A4B
:102F980004087D0603190034FF0A0319FE0AC52F29
:102FA800F300F201731CD92FDA2FDE2F7008F1001D
:102FB8007108F2070310F00D0310F30C7308031DDA
:102FC800E62FE72FD62F72080800F1006400831659
:102FD80003178C18F02FF12FEA2F710883120317AB
:102FE8008D003F30F0007008831603178C050C1411
:082FF800831203170C08080006
:08400000FF3FFF3FFF3FFF3FC0
:02400E00FB3F76
:00000001FF
